:100000000C9463000C94D90B0C94B20B0C944F0B12
:100010000C94EC0A0C947B0A0C948B000C948B00CF
:100020000C948B000C948B000C948B000C94BF09E7
:100030000C948B000C948B000C948B000C948B0014
:100040000C941D090C948B000C948D090C94670979
:100050000C948B000C948B000C948B000C948B00F4
:100060000C94FE070C948B00000000002300260077
:10007000290000000000240027002A0000000000E2
:10008000250028002B0004040404040404040202D4
:100090000202020203030303030301020408102007
:1000A0004080010204081020010204081020000012
:1000B0000008000201000003040700000000000027
:1000C0000000000CBF0F11241FBECFEFD8E0DEBF31
:1000D000CDBF11E0A0E0B1E0E6E3F6E202C005909A
:1000E0000D92A039B107D9F723E0A0E9B1E001C032
:1000F0001D92A537B207E1F710E0C2E6D0E004C0D8
:100100002197FE010E941611C136D107C9F70E943E
:10011000440C0C940E130C94000020917002260FD6
:100120003327331F21323105ECF420919602FC0174
:1001300090E080E0243069F082E00895A0917002A0
:100140002191AC01425B5D4FA40FB52FB11D2C93E3
:100150000196861798F380917002680F6093700281
:1001600080E0089581E00895089508950895E0914C
:10017000450280914402E81730F4F0E0EC5DFD4F59
:10018000808190E008958FEF9FEF08959091450250
:10019000809144022FEF3FEF981748F4E92FF0E0E9
:1001A000EC5DFD4F208130E09F5F90934502C901D7
:1001B00008958091440290914502891B990B0895FE
:1001C000CF92DF92EF92FF920F931F93CF93DF9323
:1001D0007C01CB018A0120912302222389F0EB01CB
:1001E0006B01C40ED51ECC15DD0569F06991D701F0
:1001F000ED91FC910190F081E02DC7010995F3CFBD
:10020000642F0E948D00C801DF91CF911F910F9143
:10021000FF90EF90DF90CF900895CF93DF931F92E0
:10022000CDB7DEB76983209123022223F9F0209114
:100230004602203258F021E030E0FC013383228373
:1002400090E080E00F90DF91CF9108958091470278
:10025000E82FF0E0ED5FFD4F998190838F5F8093F1
:1002600047028093460281E090E0ECCF61E0CE014E
:1002700001960E948D00F7CF833081F028F4813001
:1002800099F08230A9F008958730A9F08830C9F03C
:100290008430B1F4809180008F7D03C08091800014
:1002A0008F7780938000089584B58F7784BD0895FB
:1002B00084B58F7DFBCF8091B0008F778093B000A5
:1002C00008958091B0008F7DF9CF1F93CF93DF9376
:1002D000282F30E0F901E255FF4F8491F901E656ED
:1002E000FF4FD491F901EA57FF4FC491CC23A9F0F5
:1002F000162F81110E943C01EC2FF0E0EE0FFF1F42
:10030000E458FF4FA591B4918FB7F894EC91111177
:1003100008C0D095DE23DC938FBFDF91CF911F9172
:100320000895DE2BF8CF1092960281E08093980218
:100330001092970261E082E10E94650161E083E131
:100340000E946501E9EBF0E080818E7F80838081EF
:100350008D7F808388E48093B80085E48093BC001F
:100360000895CF93DF9391E090934D028823B9F0E5
:10037000C091B800D091BA008091BC008A7B809374
:10038000BC0060E082E10E94650160E083E10E94C0
:1003900065010E949301D093BA00C093B800DF9129
:1003A000CF910895CF93DF9390E0FC01E656FF4F85
:1003B00024918A579F4FFC0184918823D1F090E0CB
:1003C000880F991FFC01EE58FF4FA591B491FC01D5
:1003D000E458FF4FC591D49161110EC09FB7F894B6
:1003E0008C91E22FE0958E238C932881E223E88381
:1003F0009FBFDF91CF9108958FB7F894EC91E22BD6
:10040000EC938FBFF6CF3FB7F8948091FF019091A6
:100410000002A0910102B091020226B5A89B05C07E
:100420002F3F19F00196A11DB11D3FBFBA2FA92F73
:10043000982F8827BC01CD01620F711D811D911D70
:1004400042E0660F771F881F991F4A95D1F70895DC
:100450008F929F92AF92BF92CF92DF92EF92FF92D4
:100460004B015C010E9403026B017C010E940302AC
:100470006C197D098E099F09683E734081059105BD
:10048000A8F321E0821A9108A108B10888EEC80EED
:1004900083E0D81EE11CF11C81149104A104B10475
:1004A00029F7FF90EF90DF90CF90BF90AF909F9093
:1004B0008F9008952FB7F8946091FB017091FC0123
:1004C0008091FD019091FE012FBF08950895AF9294
:1004D000BF92CF92DF92EF92FF920F931F93CF9331
:1004E000DF936C017B018B01040F151FEB015E0193
:1004F000AE18BF08C017D10759F06991D601ED9128
:10050000FC910190F081E02DC6010995892B79F7C6
:10051000C501DF91CF911F910F91FF90EF90DF9078
:10052000CF90BF90AF900895FC01538D448D252F3F
:1005300030E0842F90E0821B930B541710F0CF967D
:10054000089501970895FC01918D828D981761F0AF
:10055000A28DAE0FBF2FB11D5D968C91928D9F5FC6
:100560009F73928F90E008958FEF9FEF0895FC01A5
:10057000918D828D981731F0828DE80FF11D858D58
:1005800090E008958FEF9FEF0895FC01918D228DEB
:10059000892F90E0805C9F4F821B91098F73992770
:1005A000089588EC92E00E94C50221E0892B09F4AD
:1005B00020E0822F089580E090E0892B29F00E94AE
:1005C000D10281110C9400000895FC01A48DA80FA4
:1005D000B92FB11DA35ABF4F2C91848D90E0019685
:1005E0008F739927848FA689B7892C93A089B189A5
:1005F0008C91837080648C93938D848D981306C046
:100600000288F389E02D80818F7D80830895EF92A9
:10061000FF920F931F93CF93DF93EC0181E0888FBC
:100620009B8D8C8D98131AC0E889F989808185FF8C
:1006300015C09FB7F894EE89FF896083E889F9892E
:1006400080818370806480839FBF81E090E0DF9130
:10065000CF911F910F91FF90EF900895F62E0B8D83
:1006600010E00F5F1F4F0F731127E02E8C8D8E113E
:100670000CC00FB607FCFACFE889F989808185FFA5
:10068000F5CFCE010E94E502F1CFEB8DEC0FFD2FEF
:10069000F11DE35AFF4FF0829FB7F8940B8FEA8960
:1006A000FB8980818062CFCFCF93DF93EC01888D6F
:1006B0008823B9F0AA89BB89E889F9898C9185FDDD
:1006C00003C0808186FD0DC00FB607FCF7CF8C916B
:1006D00085FFF2CF808185FFEDCFCE010E94E5023C
:1006E000E9CFDF91CF910895CF92DF92EF92FF9201
:1006F0000F931F93CF93DF93FC01C48121E02093DC
:100700002302C09391011092470210924602848501
:10071000682B8CEB92E00E940D01D0914602D13201
:1007200008F092C00E9403026B017C018091960246
:10073000811165C082E08093960281E080939802E7
:100740008FEF809395021092BA02D093B902A3E082
:10075000B2E0E9E9F2E080E0D81385C01092BB0274
:100760008091BB02CC0FC82BC093BB028091970233
:10077000813009F07CC0109297020E9403026B0145
:100780007C018091BB028093BB00809149029091D3
:100790004A02A0914B02B0914C02892B8A2B8B2BE1
:1007A00099F00E9403020091490210914A0220919F
:1007B0004B0230914C026C197D098E099F09061776
:1007C000170728073907E0F18091BC0083FDD9CFD6
:1007D00085EC8093BC000E9403026B017C01809138
:1007E0009602823009F445C0809195028F3F61F1F5
:1007F00080919502803241F18091950225C08091CF
:10080000490290914A02A0914B02B0914C02892B6F
:100810008A2B8B2B09F48ACF0E9403020091490294
:1008200010914A0220914B0230914C026C197D09C3
:100830008E099F09061717072807390708F076CF92
:10084000809148020E94B101109247021092460224
:1008500010922302DF91CF911F910F91FF90EF90A3
:10086000DF90CF9008959D9191938F5F75CF85EE26
:10087000B0CF8091490290914A02A0914B02B09171
:100880004C02892B8A2B8B2B09F4A9CF0E940302DF
:100890000091490210914A0220914B0230914C0282
:1008A0006C197D098E099F09061717072807390754
:1008B00008F095CFC5CF90E080E008950F931F9387
:1008C000CF93DF93C091F001D091F1010E945A02C1
:1008D0000091920110919301209194013091950122
:1008E000601B710B820B930B693C710581059105AF
:1008F00008F433C00E945A026093920170939301EE
:100900008093940190939501288139813327F901CF
:10091000E255FF4F8491F901E656FF4FD491F9015A
:10092000EA57FF4FC491CC23C1F081110E943C01D2
:10093000EC2FF0E0EE0FFF1FE859FF4FA591B491A7
:10094000EC91ED2351F08091F2019091F301019728
:1009500049F41092F3011092F201DF91CF911F91AF
:100960000F91089581E090E09093F3018093F2015C
:10097000F4CF2F923F924F925F926F927F928F921D
:100980009F92AF92BF92CF92DF92EF92FF920F931E
:100990001F93CF93DF9300D000D01F92CDB7DEB767
:1009A000DC0116962D913C912617370709F42BC1CF
:1009B000261737070CF40FC1EFEFFFEFFB83EA8335
:1009C0001B019D838C83DC0119968C9119978C30C7
:1009D00008F059C01C9161E0812F0E94D201EC8186
:1009E000FD818185282F30E0F901EE0FFF1FE20F16
:1009F000F31FEA56FE4F1F739081907C912B9083DA
:100A0000AC81BD811A961C921A971B961C922CE001
:100A1000622F0E940311829FB001112430E020E078
:100A2000AB01420F531FFA01EE0FFF1FE40FF51F3A
:100A3000EA56FE4F908196FD16C02F5F3F4F2C3037
:100A4000310571F781110FC01092800082E0809310
:100A500081001092850010928400B19A80916F00FD
:100A6000826080936F00AC81BD811996EC918E2FCE
:100A700090E0FC01EE0FFF1FE80FF91FEA56FE4F52
:100A8000808180648083EC81FD8186819781510122
:100A9000A81AB90AB7FE03C0B194A194B108912C69
:100AA000812C08E810E084EB482E512C612C712C2D
:100AB000AC81BD811996BC91B983EC81FD818A140A
:100AC0009B0409F48DC0868197812A813B81820F26
:100AD000931F97838683803232E09307C4F5228583
:100AE0006801C21AD10827FDD394CC0CDD1CCC0CB4
:100AF000DD1C0D2C000CEE08FF08238548E552E0B4
:100B0000421B510927FD53959A01220F331F220FD3
:100B1000331F032E000C440B550B2C193D094E09B5
:100B20005F09DC01853B910514F0A4EBB0E0B7FF51
:100B300002C0B0E0A0E00E949310A30192010E94C5
:100B40006910DA01C9018C0D9D1DAE1DBF1D5981B3
:100B50005C30B8F5AC81BD811A962C911A97F801DA
:100B6000E21BF10927FDF3959F01220F331F220F8E
:100B7000331F821793078CF01B962C9148E552E0A7
:100B8000421B510927FD53959A01220F331F220F53
:100B9000331F821793070CF49C01C9010297880F39
:100BA000991F6FB7F894A9814A2F50E09A01220F3C
:100BB000331F240F351FF901EA56FE4F92838183BC
:100BC0006FBF66E070E080E090E00E942802BFEF17
:100BD0008B1A9B0A6DCF21E030E03B832A83F0CE55
:100BE000828193812816390634F51086B9818B2FBE
:100BF00090E0FC01EE0FFF1FE80FF91FEA56FE4FD1
:100C000080818F7B80830F900F900F900F900F90BB
:100C1000DF91CF911F910F91FF90EF90DF90CF90D8
:100C2000BF90AF909F908F907F906F905F904F900C
:100C30003F902F90089581E0AC81BD8118968C93F0
:100C4000D5CF0F931F93CF938C01C62F0E947403AF
:100C50006C2F6460C8010E9474036C2F6B7FC80105
:100C60000E94740383EC90E00197F1F7CF911F91FC
:100C70000F9108950F931F93CF93DF938C01D62F7D
:100C8000C42F607F642B0E94210680E1D89FB001B1
:100C900011246C2BC801DF91CF911F910F910C94FF
:100CA0002106CF93DF93CDB7DEB728970FB6F89420
:100CB000DEBF0FBECDBF28E0E6E0F1E0DE01119619
:100CC00001900D922A95E1F7FC012085241710F47C
:100CD0004FEF420F50E0440F551F21E030E02C0F42
:100CE0003D1F420F531FFA012081620F606840E0F0
:100CF00028960FB6F894DEBF0FBECDBFDF91CF911F
:100D00000C943A060F931F93CF93DF938C01EB0162
:100D100060E0DC018D919C910E945106F801808178
:100D200091814C815D8168817981DC01ED91FC913B
:100D30000280F381E02DDF91CF911F910F910994F3
:100D4000CF93DF93EC0140E061E00E943A068BE331
:100D50009FE10197F1F78985882339F040E060E051
:100D6000CE01DF91CF910C945106DF91CF91089580
:100D700041E00E943A0681E090E0089585ED80937D
:100D8000BC008091490290914A02A0914B02B0911F
:100D90004C020796A11DB11D23E0B695A795979526
:100DA00087952A95D1F72091BC0024FD03C01092AD
:100DB000960208954091490250914A0260914B0277
:100DC00070914C02452B462B472B69F30097A105E8
:100DD000B10541F025E32A95F1F700000197A1093B
:100DE000B109E1CF809148020C94B101CF93DF9318
:100DF000EC0188819981009711F00E94B811198245
:100E000018821D821C821B821A82DF91CF91089565
:100E1000FC0180819181009711F00C94B811089524
:100E20000F931F93CF93DF93EC01888199810097F3
:100E300059F02A813B812617370730F081E0DF9196
:100E4000CF911F910F9108958B016F5F7F4F0E948B
:100E50004112009759F0998388831B830A832C8160
:100E60003D81232B59F7FC011082E8CF80E0E7CFCA
:100E7000EF92FF920F931F93CF93DF93611571054C
:100E800041F480E0DF91CF911F910F91FF90EF909F
:100E9000089541155105B1F07B01EC010C811D81D4
:100EA000040F151FB8010E941007882351F32881F1
:100EB00039818C819D81B701820F931F0E94071396
:100EC0001D830C8381E0DECFCF93DF93EC01FB0128
:100ED00001900020E9F73197AF01461B570B0E94A4
:100EE0003807811103C0CE010E94F606CE01DF91C2
:100EF000CF910895EF92FF920F931F93CF93DF93BB
:100F0000EC017B018A01BA010E94100781110BC01C
:100F1000CE010E94F606CE01DF91CF911F910F9175
:100F2000FF90EF9008951D830C83B701888199810C
:100F30000E940713F0CFEF92FF920F931F93CF936E
:100F4000DF93CDB7DEB7A2970FB6F894DEBF0FBE22
:100F5000CDBF8C01CB01BA01F8011182108213823E
:100F60001282158214822AE0AE014F5F5F4F7A0130
:100F70000E94F90FF70101900020E9F73197AF01C6
:100F80004E195F09B701C8010E947A07A2960FB6F1
:100F9000F894DEBF0FBECDBFDF91CF911F910F91AF
:100FA000FF90EF900895FB01DC0111961C921E92B8
:100FB00013961C921E92129715961C921E921497CD
:100FC0008617970749F0608171816115710521F0DD
:100FD000448155810C947A070895FC011182108296
:100FE0001382128215821482FB0101900020E9F71E
:100FF0003197AF01461B570B0C947A071F920F9243
:101000000FB60F9211242F933F934F935F936F93DB
:101010007F938F939F93AF93BF93EF93FF938091B1
:10102000B900887F803609F44AC0F0F5883209F4A7
:10103000A7C018F5803109F49BC0B8F4882309F4DF
:10104000F9C0883009F494C0FF91EF91BF91AF913E
:101050009F918F917F916F915F914F913F912F91D0
:101060000F900FBE0F901F901895883109F488C01B
:10107000803251F78093950214C0803409F49DC0EA
:1010800040F48033B9F38833F9F68093950285EC08
:10109000B0C0803509F485C0883509F496C088341D
:1010A00099F60E94BE06D0CF883909F48CC038F575
:1010B000883729F050F4883611F0803729F683E01C
:1010C000809396021092940257C0883809F47BC02E
:1010D000803919F0803809F0B7CF809194028032BE
:1010E00008F071C0E091940281E08E0F8093940229
:1010F0008091BB00F0E0EC58FD4F80833DC0803B09
:1011000039F0E0F4803A09F479C0883A09F09CCFCC
:1011100084E0809396021092710210927002E09126
:101120006E02F0916F0209958091700281110FC0DB
:1011300081E08093700210924E0209C0803C09F455
:10114000A6CF883C09F4A3CF883B09F07DCFE0917E
:10115000710281E08E0F80937102F0E0E25BFD4F3F
:1011600080818093BB00909171028091700229C0B0
:101170008091BB028093BB0085EC8093BC0064CF60
:101180009091BA028091B902981758F5E091BA028D
:1011900081E08E0F8093BA02F0E0E756FD4F808128
:1011A000E9CFE091BA0281E08E0F8093BA0280917C
:1011B000BB00F0E0E756FD4F80839091BA0280912A
:1011C000B9029817C8F285E8D8CFE091BA0281E059
:1011D0008E0F8093BA028091BB00F0E0E756FD4F7E
:1011E00080838091980281115CCF81E08093970287
:1011F00084EA8093BC001092960226CF85EC8093FF
:10120000BC001092960280919402803230F4E091FA
:101210009402F0E0EC58FD4F10826091940270E06F
:10122000E0917202F091730284E792E009951092C6
:1012300094020ACF1092950234CF1F920F920FB6EC
:101240000F9211242F933F938F939F93AF93BF934C
:101250008091FB019091FC01A091FD01B091FE01F4
:101260003091FA0123E0230F2D3758F50196A11D87
:10127000B11D2093FA018093FB019093FC01A09390
:10128000FD01B093FE018091FF0190910002A091B9
:101290000102B09102020196A11DB11D8093FF01D0
:1012A00090930002A0930102B0930202BF91AF910C
:1012B0009F918F913F912F910F900FBE0F901F9094
:1012C000189526E8230F0296A11DB11DD2CF1F92BB
:1012D0000F920FB60F9211242F933F934F935F936A
:1012E0006F937F938F939F93AF93BF93EF93FF93EE
:1012F00088EC92E00E94E502FF91EF91BF91AF91DF
:101300009F918F917F916F915F914F913F912F911D
:101310000F900FBE0F901F9018951F920F920FB64F
:101320000F9211242F938F939F93EF93FF93E0914C
:10133000D802F091D9028081E091DE02F091DF02C3
:1013400082FD1BC090818091E1028F5F8F7320919D
:10135000E202821741F0E091E102F0E0E853FD4F34
:10136000958F8093E102FF91EF919F918F912F9143
:101370000F900FBE0F901F9018958081F4CF1F9291
:101380000F920FB60F9211242F933F934F935F93B9
:101390006F937F938F939F93AF93BF93CF93DF937D
:1013A000EF93FF9380919001C091BA01D0E087FF45
:1013B00024C01092850010928400809190018F5F6C
:1013C0008093900180919001082E000C990B8C174E
:1013D0009D0724F4809190018C30C4F180918400A9
:1013E00090918500049680349C4908F47AC08091DD
:1013F000840090918500049676C080919001082E1B
:10140000000C990B8C179D07C4F6E09190018E2F6C
:10141000EE0F990BFC01EE0FFF1FE80FF91FEA56C4
:10142000FE4F808186FFC9CFE09190018E2FEE0F95
:10143000990BFC01EE0FFF1FE80FF91FEA56FE4F54
:10144000808160E08F730E946501B7CF2091840096
:1014500030918500E09190018E2FEE0F990BFC01E9
:10146000EE0FFF1FE80FF91FEA56FE4F81819281B0
:10147000820F931F9093890080938800E0919001E0
:101480008E2FEE0F990BFC01EE0FFF1FE80FF91FD7
:10149000EA56FE4F808186FF11C0E09190018E2FA9
:1014A000EE0F990BFC01EE0FFF1FE80FF91FEA5634
:1014B000FE4F808161E08F730E946501FF91EF9183
:1014C000DF91CF91BF91AF919F918F917F916F915C
:1014D0005F914F913F912F910F900FBE0F901F90F2
:1014E000189580E49CE990938900809388008FEFA1
:1014F00080939001E3CF1F920F920FB60F921124A9
:101500002F933F934F935F936F937F938F939F930B
:10151000AF93BF93CF93EF93FF9399B1C091BF0166
:101520008091ED013091EA01292F20952323892311
:10153000822B20916D00C927C223C8239093BF013D
:10154000CC23C1F1C0FF05C0E091C001F091C10101
:101550000995C1FF05C0E091C201F091C301099551
:10156000C2FF05C0E091C401F091C5010995C3FF18
:1015700005C0E091C601F091C7010995C4FF05C0FF
:10158000E091C801F091C9010995C5FF05C0E0913E
:10159000CA01F091CB010995C6FF05C0E091CC01CD
:1015A000F091CD010995C7FF05C0E091CE01F09102
:1015B000CF010995FF91EF91CF91BF91AF919F918D
:1015C0008F917F916F915F914F913F912F910F90EC
:1015D0000FBE0F901F9018951F920F920FB60F928B
:1015E00011242F933F934F935F936F937F938F9328
:1015F0009F93AF93BF93CF93EF93FF9396B1C09117
:10160000D0018091EE013091EB01292F2095232309
:101610008923822B20916C00C927C223C823909371
:10162000D001CC2351F1C0FF05C0E091D101F09170
:10163000D2010995C1FF05C0E091D301F091D40119
:101640000995C2FF05C0E091D501F091D601099539
:10165000C3FF05C0E091D701F091D8010995C4FFFF
:1016600005C0E091D901F091DA010995C5FF05C0E7
:10167000E091DB01F091DC010995FF91EF91CF91B1
:10168000BF91AF919F918F917F916F915F914F919A
:101690003F912F910F900FBE0F901F9018951F92A2
:1016A0000F920FB60F9211242F933F934F935F9396
:1016B0006F937F938F939F93AF93BF93CF93EF934A
:1016C000FF9393B1C091DD018091EF013091EC0166
:1016D000292F209523238923822B20916B00C92752
:1016E000C223C8239093DD01CC2351F1C0FF05C074
:1016F000E091DE01F091DF010995C1FF05C0E091A5
:10170000E001F091E1010995C2FF05C0E091E2011D
:10171000F091E3010995C3FF05C0E091E401F09168
:10172000E5010995C4FF05C0E091E601F091E701EC
:101730000995C5FF05C0E091E801F091E90109951F
:10174000FF91EF91CF91BF91AF919F918F917F9139
:101750006F915F914F913F912F910F900FBE0F901E
:101760001F9018951F920F920FB60F9211242F936E
:101770003F934F935F936F937F938F939F93AF9319
:10178000BF93EF93FF93E091BD01F091BE010995E6
:10179000FF91EF91BF91AF919F918F917F916F9149
:1017A0005F914F913F912F910F900FBE0F901F901F
:1017B00018951F920F920FB60F9211242F933F93FB
:1017C0004F935F936F937F938F939F93AF93BF9349
:1017D000EF93FF93E091BB01F091BC010995FF915C
:1017E000EF91BF91AF919F918F917F916F915F9199
:1017F0004F913F912F910F900FBE0F901F90189512
:10180000ECEBF2E01382128288EE93E0A0E0B0E00D
:1018100084839583A683B7832EE131E031832083CF
:10182000E8ECF2E01382128284839583A683B78367
:1018300080E391E09183808385EC90E095878487B5
:1018400084EC90E09787868780EC90E0918B808B8A
:1018500081EC90E0938B828B82EC90E0958B848B73
:1018600086EC90E0978B868B118E128E138E148EE1
:101870006EE871E08BE693E00E94ED076EE871E0A0
:1018800085E693E00C94ED07CF93DF93CDB7DEB7F9
:101890006E970FB6F894DEBF0FBECDBF789484B5B7
:1018A000826084BD84B5816084BD85B5826085BD5C
:1018B00085B5816085BD80916E00816080936E00EA
:1018C00010928100809181008260809381008091DC
:1018D000810081608093810080918000816080938D
:1018E00080008091B10084608093B1008091B0004D
:1018F00081608093B00080917A00846080937A0048
:1019000080917A00826080937A0080917A00816071
:1019100080937A0080917A00806880937A00109298
:10192000C10082E090E00E941C118C0182E090E0F6
:10193000F801918380830E945A0260939201709310
:101940009301809394019093950160E082E00E945E
:10195000D2011093F1010093F0018CE090E00E941D
:101960001C11FC018091BA018C3008F0A6C191E0F5
:10197000980F9093BA01818790E0DC01AA0FBB1FFA
:10198000A80FB91FAA56BE4F88EB9BE012969C93F6
:101990008E9311978DE090E09183808384EB90E0AB
:1019A0009383828315821482178216821086F093A5
:1019B000F701E093F60182E090E00E941C116C01B7
:1019C0008DE090E00E941C118C01FC0113821282B8
:1019D00082E191E091838083118687E2848384E1B0
:1019E000828784E083871486F60111830083109236
:1019F00045021092440210924702109246020E9441
:101A0000930184EB90E090936F0280936E0285EBDC
:101A100090E09093730280937202F801158283859F
:101A2000823010F098E09583F801808762E370E0DF
:101A300080E090E00E942802F8016485C8010E94BD
:101A4000740368EE73E080E090E00E94280260E397
:101A5000C8010E9421069BE4E92E96E4F92EC701F5
:101A60000197F1F760E3C8010E942106C7010197C1
:101A7000F1F760E3C8010E94210683E592E0019737
:101A8000F1F760E2C8010E942106F80165816062F9
:101A900040E0C8010E943A0684E0F801868340E0F5
:101AA0006CE0C8010E943A06C8010E94A00622E02C
:101AB000B22EF801B78240E066E0C8010E943A0603
:101AC00040E062E0C8010E943A068BE39FE1019783
:101AD000F1F7F6018081918128E0FC01248760E024
:101AE0000E947403D092F501C092F40183E090E06B
:101AF0000E941C112AE030E0FC0131832083128215
:101B000061E08AE00E94D20183E090E00E941C1113
:101B10002BE030E0FC0131832083128261E08BE016
:101B20000E94D2016FE471E08E010F5F1F4FC80168
:101B30000E94ED0750E040E0B801C6010E94820615
:101B4000C8010E940807E090F601F090F701F70144
:101B500062817381C7010E94B90468EE73E080E07E
:101B600090E00E942802F70164817581C7010E94FC
:101B7000B90460EA7FE080E090E00E9428029FB70D
:101B8000F8942EE534E03093BC012093BB01E89833
:101B9000809169008C7F80936900809169008160E9
:101BA00080936900E09AE89A9FBFE091D802F09193
:101BB000D902B082E091D402F091D5021082E09176
:101BC000D602F091D7028FEC80831092E002E09170
:101BD000DC02F091DD0286E08083E091DA02F09190
:101BE000DB02808180618083E091DA02F091DB0288
:101BF000808188608083E091DA02F091DB0280814D
:101C000080688083E091DA02F091DB0280818F7D31
:101C100080831092F3011092F20134E6432E512C8E
:101C2000612C712C44EB842E912CA12CB12C80E0E2
:101C3000C82E80E0D82E6EE871E0C8010E94ED0742
:101C400088EC92E00E94C50218161906CCF50E9495
:101C50005A026093D0027093D1028093D202909383
:101C6000D30288EC92E00E94A30297FF86C10E94F3
:101C70005A022091D0023091D1024091D20250916B
:101C8000D302621B730B840B950B2091CC02309115
:101C9000CD024091CE025091CF02621773078407A4
:101CA0009507F8F23B8A1C8A41E050E0BE016D5E68
:101CB0007F4FC8010E943807C3CF8FEF81876ACE5C
:101CC00080916B0390916C03009709F43BC169818B
:101CD0007A816115710509F433C140916D0350910A
:101CE0006E032D813E814217530708F429C10E94DB
:101CF00007138D819E819093700380936F031E82E2
:101D00001D82C8010E94080780916F0390917003A3
:101D1000892B69F080916B0390916C03009709F413
:101D200028C10E94C70F7093F9016093F801A09138
:101D3000F801B091F90124EB30E00E940F11A301EA
:101D400092010E946910B9018091F6019091F7010A
:101D50000E94B904E090F401F090F501F701808150
:101D600091810E94A00663E671E0C8010E94ED0720
:101D700050E040E0B801C7010E948206C8010E94FD
:101D80000807E090F401F090F501E091F601F09180
:101D9000F701A681B78124E630E00E940F11A5016A
:101DA00094010E946910BA01A901CE0149960E94CE
:101DB0009B07BE01675E7F4FCE0143960E94D3070B
:101DC00068E771E0CE0143960E946407BC01C80138
:101DD0000E94D30741E050E0B801C7010E9482068B
:101DE000C8010E940807CE0143960E940807CE0151
:101DF00049960E940807E090F401F090F5016AE727
:101E000071E0C8010E94ED0742E050E0B801C7014F
:101E10000E948206C8010E940807E090F401F09039
:101E2000F5018091F2019091F3016EE371E0019769
:101E300011F065E471E0C8010E94ED0743E050E055
:101E4000B801C7010E948206C8010E940807E091FC
:101E5000F601F091F701A681B78124E630E00E94F7
:101E60000F11A50194010E946910BA01A901CE01C8
:101E700043960E949B078091F2019091F3011A8E84
:101E8000198E1C8E1B8E1E8E1D8E4AE0B8010E947C
:101E9000EE0FF80101900020E9F73197AF01401BE8
:101EA000510BB801CE0149960E947A07BE01675EC8
:101EB0007F4FC8010E94D30766E771E0C8010E9406
:101EC00064077C014F89588D6B897C890E94380793
:101ED000811103C0C7010E94F60668E771E0C701DF
:101EE0000E946407FC01448155816081718188EC06
:101EF00092E00E94670242E050E06CE871E088ECFA
:101F000092E00E946702C8010E940807CE0149962C
:101F10000E940807CE0143960E94080764EF71E013
:101F200080E090E00E942802C114D10409F483CE1D
:101F30000E94D102882309F47ECE0E94000077CE51
:101F40000E94B81189819A8190936C0380936B03EE
:101F50008B819C8190936E0380936D038D819E8114
:101F60009093700380936F031A8219821C821B82E4
:101F7000C6CE60E070E0CB01D6CE382E93CE85E69B
:101F800093E00E9408078BE693E00C9408071F93E8
:101F9000FC0199278827BC01E89411911032E9F3DC
:101FA000193010F01E30C8F31B3251F01D3249F4C5
:101FB000689406C00E940810610F711D811D911D5B
:101FC000119110531A30B0F33EF4909580957095AE
:101FD00061957F4F8F4F9F4F1F910895BB274A30C8
:101FE00031F4992322F4BDE2909581959F4F0C9492
:101FF0004010BB272A3051F4992342F4BDE290955A
:102000008095709561957F4F8F4F9F4F0C941E1058
:10201000592F482F372F262F660F771F881F991F9C
:10202000660F771F881F991F620F731F841F951FEC
:10203000660F771F881F991F0895BB27FA01A62FE7
:102040006217710581059105330B30FB66F0AA27F5
:10205000660F771F881F991FAA1FA21710F0A21BD7
:1020600063953850A9F7A05DAA3308F0A95DA19344
:1020700036F7B111B1931082CA010C945910BB27E5
:10208000FB015527AA27880F991FAA1FA41710F034
:10209000A41B83955051B9F7A05DAA3308F0A95D40
:1020A000A193009779F7B111B1931192CB010C94E0
:1020B0005910DC01FC01672F71917723E1F732970A
:1020C00004C07C916D9370836291AE17BF07C8F313
:1020D0000895052E97FB1EF400940E94801057FD72
:1020E00007D00E94D21007FC03D04EF40C9480104D
:1020F00050954095309521953F4F4F4F5F4F089534
:1021000090958095709561957F4F8F4F9F4F089563
:102110000E94F410A59F900DB49F900DA49F800D78
:10212000911D11240895B7FF0C9488100E94881007
:10213000821B930B08952F923F924F925F926F9262
:102140007F928F929F92AF92BF92CF92DF92EF9247
:10215000FF920F931F93CF93DF93CDB7DEB7CA1BC8
:10216000DB0B0FB6F894DEBF0FBECDBF09942A88F3
:10217000398848885F846E847D848C849B84AA849B
:10218000B984C884DF80EE80FD800C811B81AA8128
:10219000B981CE0FD11D0FB6F894DEBF0FBECDBFF3
:1021A000ED010895A1E21A2EAA1BBB1BFD010DC073
:1021B000AA1FBB1FEE1FFF1FA217B307E407F507F7
:1021C00020F0A21BB30BE40BF50B661F771F881FD3
:1021D000991F1A9469F760957095809590959B0169
:1021E000AC01BD01CF010895A29FB001B39FC00112
:1021F000A39F700D811D1124911DB29F700D811D33
:102200001124911D0895991B79E004C0991F961718
:1022100008F0961B881F7A95C9F7809508950E944B
:10222000F410B7FF0895821B930B0895EE0FFF1F64
:102230000590F491E02D09940F931F93CF93DF93B2
:102240008230910510F482E090E0E0917303F09108
:10225000740330E020E0B0E0A0E0309799F421155D
:10226000310509F44AC0281B390B24303105D8F553
:102270008A819B816115710589F1FB0193838283BA
:10228000FE0111C040815181028113814817590715
:10229000E0F04817590799F4109761F012960C93E3
:1022A000129713961C933296CF01DF91CF911F9115
:1022B0000F9108950093730310937403F4CF2115C5
:1022C000310551F04217530738F0A901DB019A019B
:1022D000BD01DF01F801C1CFEF01F9CF9093740385
:1022E00080937303CDCFFE01E20FF31F819391938F
:1022F0002250310939832883D7CF2091710330913F
:102300007203232B41F42091020130910301309399
:102310007203209371032091000130910101211576
:10232000310541F42DB73EB74091040150910501AC
:10233000241B350BE0917103F0917203E217F30750
:10234000A0F42E1B3F0B2817390778F0AC014E5F25
:102350005F4F2417350748F04E0F5F1F50937203ED
:1023600040937103819391939FCFF0E0E0E09CCF85
:10237000CF93DF930097E9F0FC013297138212822A
:10238000A0917303B0917403ED0130E020E0109749
:10239000A1F420813181820F931F2091710330912C
:1023A00072032817390709F061C0F0937203E093B4
:1023B0007103DF91CF910895EA01CE17DF07E8F5A9
:1023C0004A815B819E0141155105B1F7E901FB830B
:1023D000EA8349915991C40FD51FEC17FD0761F4A9
:1023E000808191810296840F951FE90199838883EA
:1023F000828193819B838A83F0E0E0E012968D9145
:102400009C9113970097B9F52D913C911197CD01AF
:102410000296820F931F2091710330917203281747
:10242000390739F6309751F51092740310927303FF
:10243000B0937203A0937103BCCFD383C283408156
:102440005181840F951FC817D90761F44E5F5F4F04
:1024500088819981480F591F518340838A819B81CC
:10246000938382832115310509F0B0CFF093740373
:10247000E09373039ECFFD01DC01C0CF1382128273
:10248000D7CFB0E0A0E0E7E4F2E10C949D108C011E
:10249000009751F4CB010E941C118C01C801CDB7EB
:1024A000DEB7E0E10C94B910FC01E60FF71F9C01C8
:1024B00022503109E217F30708F49DC0D901CD91EC
:1024C000DC911197C617D70798F0C530D10530F3C6
:1024D000CE0104978617970708F3C61BD70B2297E0
:1024E000C193D1936D937C93CF010E94B811D6CF45
:1024F0005B01AC1ABD0A4C018C0E9D1EA0917303AA
:10250000B0917403512C412CF12CE12C109731F532
:1025100080917103909172038815990509F05CC050
:102520004616570608F058C08091000190910101AD
:10253000009741F48DB79EB7409104015091050179
:10254000841B950BE817F90708F055C0F093720348
:10255000E0937103F90171836083A0CF8D919C9109
:10256000119712966C90129713967C901397A8155A
:10257000B90559F56C0142E0C40ED11CCA14DB0444
:1025800020F1AC014A195B09DA011296159780F027
:102590006282738251834083D9016D937C93E114ED
:1025A000F10471F0D7011396FC93EE93129776CF56
:1025B00022968C0F9D1FF90191838083F301EFCF49
:1025C000F0937403E093730369CF4816590608F437
:1025D0002C017D01D3019ACFCB010E941C117C01FB
:1025E000009749F0AE01B8010E94FE12C8010E9496
:1025F000B811870153CF10E000E050CFFB01DC01A0
:1026000002C001900D9241505040D8F70895FB014F
:10261000DC0101900D920020E1F7089510E0C2E680
:10262000D0E004C0FE010E9416112196C336D107E6
:06263000C9F7F894FFCF8A
:1026360000007503800000004000140054000000F4
:102646000000B80667025B046602000000000D0188
:10265600E0005B04B600D900C600B7000000000029
:102666000703670294025403C502A302B7026D6111
:102676006E75616C006175746F6D6174696300439A
:10268600616C6962726174696E672073656E736FDF
:1026960072730056616C7665206F70656E696E6741
:1026A600206C6576656C3A00250063757272656EFE
:1026B60074206D6F64616C6974793A000D0A0000CC
:00000001FF
