:100000000C9462000C94440B0C941D0B0C94BA0AD3
:100010000C94570A0C94E6090C948A000C948A00FC
:100020000C948A000C948A000C948A000C942A097F
:100030000C948A000C948A000C948A000C948A0018
:100040000C9488080C948A000C94F8080C94D2083C
:100050000C948A000C948A000C948A000C948A00F8
:100060000C9469070C948A0000000000230026000D
:10007000290000000000240027002A0000000000E2
:10008000250028002B0004040404040404040202D4
:100090000202020203030303030301020408102007
:1000A0004080010204081020010204081020000012
:1000B0000008000201000003040700000000000027
:1000C00000006B0B11241FBECFEFD8E0DEBFCDBF09
:1000D00011E0A0E0B1E0E2EBF3E202C005900D9286
:1000E000A03BB107D9F723E0A0EBB1E001C01D921E
:1000F000A738B207E1F710E0C2E6D0E004C02197CC
:10010000FE010E94DF0FC136D107C9F70E94A40B80
:100110000C94D7110C94000020918E02260F3327E7
:10012000331F21323105ECF42091B402FC0190E040
:1001300080E0243069F082E00895A0918E02219140
:10014000AC0144595D4FA40FB52FB11D2C930196FE
:10015000861798F380918E02680F60938E0280E07C
:10016000089581E00895089508950895E091630247
:1001700080916202E81730F4F0E0EE5BFD4F808181
:1001800090E008958FEF9FEF089590916302809122
:1001900062022FEF3FEF981748F4E92FF0E0EE5B93
:1001A000FD4F208130E09F5F90936302C901089565
:1001B0008091620290916302891B990B0895CF92FE
:1001C000DF92EF92FF920F931F93CF93DF937C0107
:1001D000CB018A0120914102222389F0EB016B01BE
:1001E000C40ED51ECC15DD0569F06991D701ED91DE
:1001F000FC910190F081E02DC7010995F3CF642FA8
:100200000E948C00C801DF91CF911F910F91FF9048
:10021000EF90DF90CF900895CF93DF931F92CDB7EB
:10022000DEB76983209141022223F9F02091640214
:10023000203258F021E030E0FC013383228390E04B
:1002400080E00F90DF91CF91089580916502E82FB3
:10025000F0E0EF5DFD4F998190838F5F80936502A1
:100260008093640281E090E0ECCF61E0CE010196E2
:100270000E948C00F7CF833081F028F4813099F010
:100280008230A9F008958730A9F08830C9F0843011
:10029000B1F4809180008F7D03C0809180008F77C2
:1002A00080938000089584B58F7784BD089584B5C8
:1002B0008F7DFBCF8091B0008F778093B000089541
:1002C0008091B0008F7DF9CF1F93CF93DF93282FBC
:1002D00030E0F901E255FF4F8491F901E656FF4FF6
:1002E000D491F901EA57FF4FC491CC23A9F0162FFE
:1002F00081110E943B01EC2FF0E0EE0FFF1FE4584C
:10030000FF4FA591B4918FB7F894EC91111108C0EB
:10031000D095DE23DC938FBFDF91CF911F9108959D
:10032000DE2BF8CF1092B40281E08093B6021092D7
:10033000B50261E082E10E94640161E083E10E9414
:100340006401E9EBF0E080818E7F808380818D7F86
:10035000808388E48093B80085E48093BC0008958E
:10036000CF93DF9391E090936B028823B9F0C09113
:10037000B800D091BA008091BC008A7B8093BC0009
:1003800060E082E10E94640160E083E10E94640118
:100390000E949201D093BA00C093B800DF91CF9130
:1003A0000895CF93DF9390E0FC01E656FF4F249130
:1003B0008A579F4FFC0184918823D1F090E0880FE9
:1003C000991FFC01EE58FF4FA591B491FC01E45830
:1003D000FF4FC591D49161110EC09FB7F8948C91D5
:1003E000E22FE0958E238C932881E223E8839FBF40
:1003F000DF91CF9108958FB7F894EC91E22BEC93B5
:100400008FBFF6CF3FB7F89480911D0290911E02E6
:10041000A0911F02B091200226B5A89B05C02F3FD6
:1004200019F00196A11DB11D3FBFBA2FA92F982F1A
:100430008827BC01CD01620F711D811D911D42E015
:10044000660F771F881F991F4A95D1F708958F92DD
:100450009F92AF92BF92CF92DF92EF92FF924B01A9
:100460005C010E9402026B017C010E9402026C1975
:100470007D098E099F09683E734081059105A8F3A7
:1004800021E0821A9108A108B10888EEC80E83E025
:10049000D81EE11CF11C81149104A104B10429F7B8
:1004A000FF90EF90DF90CF90BF90AF909F908F9094
:1004B00008952FB7F8946091190270911A028091F3
:1004C0001B0290911C022FBF0895AF92BF92CF9252
:1004D000DF92EF92FF920F931F93CF93DF936C0104
:1004E0007B018B01040F151FEB015E01AE18BF08E5
:1004F000C017D10759F06991D601ED91FC91019097
:10050000F081E02DC6010995892B79F7C501DF91AE
:10051000CF911F910F91FF90EF90DF90CF90BF9000
:10052000AF900895FC01538D448D252F30E0842F2A
:1005300090E0821B930B541710F0CF96089501970B
:100540000895FC01918D828D981761F0A28DAE0FF8
:10055000BF2FB11D5D968C91928D9F5F9F73928F7F
:1005600090E008958FEF9FEF0895FC01918D828DAB
:10057000981731F0828DE80FF11D858D90E0089578
:100580008FEF9FEF0895FC01918D228D892F90E0D0
:10059000805C9F4F821B91098F739927089586EE87
:1005A00092E00E94C30221E0892B09F420E0822F0F
:1005B000089580E090E0892B29F00E94CF028111FC
:1005C0000C9400000895FC01A48DA80FB92FB11D53
:1005D000A35ABF4F2C91848D90E001968F73992779
:1005E000848FA689B7892C93A089B1898C91837057
:1005F00080648C93938D848D981306C00288F38950
:10060000E02D80818F7D80830895EF92FF920F937C
:100610001F93CF93DF93EC0181E0888F9B8D8C8DAE
:1006200098131AC0E889F989808185FF15C09FB7A2
:10063000F894EE89FF896083E889F9898081837065
:10064000806480839FBF81E090E0DF91CF911F9114
:100650000F91FF90EF900895F62E0B8D10E00F5F35
:100660001F4F0F731127E02E8C8D8E110CC00FB60B
:1006700007FCFACFE889F989808185FFF5CFCE01A3
:100680000E94E302F1CFEB8DEC0FFD2FF11DE35A39
:10069000FF4FF0829FB7F8940B8FEA89FB89808126
:1006A0008062CFCFCF93DF93EC01888D8823B9F0A0
:1006B000AA89BB89E889F9898C9185FD03C080816D
:1006C00086FD0DC00FB607FCF7CF8C9185FFF2CFEA
:1006D000808185FFEDCFCE010E94E302E9CFDF915B
:1006E000CF910895CF92DF92EF92FF920F931F93D5
:1006F000CF93DF93FC01C48121E020934102C0939A
:10070000B10110926502109264028485682B8AED13
:1007100092E00E940C01D0916402D13208F092C0A4
:100720000E9402026B017C018091B402811165C0BC
:1007300082E08093B40281E08093B6028FEF8093D1
:10074000B3021092D802D093D702A1E2B2E0E7EB55
:10075000F2E080E0D81385C01092D9028091D902CE
:10076000CC0FC82BC093D9028091B502813009F01B
:100770007CC01092B5020E9402026B017C01809144
:10078000D9028093BB008091670290916802A0918A
:100790006902B0916A02892B8A2B8B2B99F00E94F7
:1007A0000202009167021091680220916902309163
:1007B0006A026C197D098E099F0906171707280719
:1007C0003907E0F18091BC0083FDD9CF85EC80939F
:1007D000BC000E9402026B017C018091B402823055
:1007E00009F445C08091B3028F3F61F18091B3025B
:1007F000803241F18091B30225C0809167029091CF
:100800006802A0916902B0916A02892B8A2B8B2B16
:1008100009F48ACF0E9402020091670210916802D7
:100820002091690230916A026C197D098E099F0935
:10083000061717072807390708F076CF8091660258
:100840000E94B0011092650210926402109241025F
:10085000DF91CF911F910F91FF90EF90DF90CF909C
:1008600008959D9191938F5F75CF85EEB0CF809164
:10087000670290916802A0916902B0916A02892B87
:100880008A2B8B2B09F4A9CF0E94020200916702E8
:10089000109168022091690230916A026C197D09F9
:1008A0008E099F09061717072807390708F095CF03
:1008B000C5CF089590E080E008950F931F93CF93E4
:1008C000DF93C0911002D09111020E945902009151
:1008D000B2011091B3012091B4013091B501601BB8
:1008E000710B820B930B693C71058105910508F42E
:1008F00033C00E9459026093B2017093B301809398
:10090000B4019093B501288139813327F901E2556B
:10091000FF4F8491F901E656FF4FD491F901EA5750
:10092000FF4FC491CC23C1F081110E943B01EC2FF9
:10093000F0E0EE0FFF1FE859FF4FA591B491EC9145
:10094000ED2351F08091160290911702059749F41A
:100950001092170210921602DF91CF911F910F9102
:10096000089585E090E09093170280931602F4CFEB
:100970002F923F924F925F926F927F928F929F92AF
:10098000AF92BF92CF92DF92EF92FF920F931F939D
:10099000CF93DF9300D000D01F92CDB7DEB7DC013C
:1009A00016962D913C912617370709F42BC126176F
:1009B00037070CF40FC1EFEFFFEFFB83EA831B0156
:1009C0009D838C83DC0119968C9119978C3008F0EB
:1009D00059C01C9161E0812F0E94D101EC81FD8101
:1009E0008185282F30E0F901EE0FFF1FE20FF31F82
:1009F000EA54FE4F1F739081907C912B9083AC81C1
:100A0000BD811A961C921A971B961C922CE0622F9D
:100A10000E94CC0F829FB001112430E020E0AB0196
:100A2000420F531FFA01EE0FFF1FE40FF51FEA54A8
:100A3000FE4F908196FD16C02F5F3F4F2C30310541
:100A400071F781110FC01092800082E080938100C5
:100A50001092850010928400B19A80916F0082609C
:100A600080936F00AC81BD811996EC918E2F90E040
:100A7000FC01EE0FFF1FE80FF91FEA54FE4F8081C3
:100A800080648083EC81FD81868197815101A81A61
:100A9000B90AB7FE03C0B194A194B108912C812C7E
:100AA00008E810E084EB482E512C612C712CAC81AD
:100AB000BD811996BC91B983EC81FD818A149B0498
:100AC00009F48DC0868197812A813B81820F931F13
:100AD00097838683803232E09307C4F522856801CC
:100AE000C21AD10827FDD394CC0CDD1CCC0CDD1C24
:100AF0000D2C000CEE08FF08238548E552E0421B50
:100B0000510927FD53959A01220F331F220F331FDE
:100B1000032E000C440B550B2C193D094E095F099F
:100B2000DC01853B910514F0A4EBB0E0B7FF02C0F7
:100B3000B0E0A0E00E945C0FA30192010E94320F7E
:100B4000DA01C9018C0D9D1DAE1DBF1D59815C30A0
:100B5000B8F5AC81BD811A962C911A97F801E21B69
:100B6000F10927FDF3959F01220F331F220F331F39
:100B7000821793078CF01B962C9148E552E0421B9C
:100B8000510927FD53959A01220F331F220F331F5E
:100B9000821793070CF49C01C9010297880F991FD3
:100BA0006FB7F894A9814A2F50E09A01220F331FA2
:100BB000240F351FF901EA54FE4F928381836FBFE2
:100BC00066E070E080E090E00E942702BFEF8B1AA1
:100BD0009B0A6DCF21E030E03B832A83F0CE8281F7
:100BE00093812816390634F51086B9818B2F90E051
:100BF000FC01EE0FFF1FE80FF91FEA54FE4F808142
:100C00008F7B80830F900F900F900F900F90DF914C
:100C1000CF911F910F91FF90EF90DF90CF90BF90F9
:100C2000AF909F908F907F906F905F904F903F908C
:100C30002F90089581E0AC81BD8118968C93D5CF1B
:100C400042E050E06EE371E086EE92E00C946502C3
:100C500085ED8093BC008091670290916802A0911D
:100C60006902B0916A020796A11DB11D23E0B695F5
:100C7000A795979587952A95D1F72091BC0024FDDB
:100C800003C01092B4020895409167025091680227
:100C90006091690270916A02452B462B472B69F3DC
:100CA0000097A105B10541F025E32A95F1F7000071
:100CB0000197A109B109E1CF809166020C94B001BE
:100CC000FC0180819181009711F00C9481100895AE
:100CD0000F931F93CF938C01C62F0E9472036C2F2A
:100CE0006460C8010E9472036C2F6B7FC8010E9470
:100CF000720383EC90E00197F1F7CF911F910F9170
:100D000008950F931F93CF93DF938C01D62FC42F99
:100D1000607F642B0E94680680E1D89FB001112497
:100D20006C2BC801DF91CF911F910F910C94680635
:100D3000CF93DF93CDB7DEB728970FB6F894DEBF19
:100D40000FBECDBF28E0E6E0F1E0DE011196019094
:100D50000D922A95E1F7FC012085241710F44FEF3E
:100D6000420F50E0440F551F21E030E02C0F3D1F93
:100D7000420F531FFA012081620F606840E02896FD
:100D80000FB6F894DEBF0FBECDBFDF91CF910C94AC
:100D900081060F931F93CF93DF938C01EB0160E0EB
:100DA000DC018D919C910E949806F80180819181CF
:100DB0004C815D8168817981DC01ED91FC9102803B
:100DC000F381E02DDF91CF911F910F910994CF9383
:100DD000DF93EC0140E061E00E9481068BE39FE13C
:100DE0000197F1F78985882339F040E060E0CE0172
:100DF000DF91CF910C949806DF91CF91089541E057
:100E00000E94810681E090E008950F931F93CF9395
:100E1000DF93EC0188819981009759F02A813B8109
:100E20002617370730F081E0DF91CF911F910F91A6
:100E300008958B016F5F7F4F0E940A11009759F050
:100E4000998388831B830A832C813D81232B59F747
:100E5000FC011082E8CF80E0E7CFEF92FF920F9382
:100E60001F93CF93DF93EC017B018A01BA010E94AB
:100E7000050728813981811114C02115310519F028
:100E8000C9010E948110198218821D821C821B8256
:100E90001A82CE01DF91CF911F910F91FF90EF90B9
:100EA00008951D830C83B701C9010E94D011F1CFB1
:100EB000FC01118210821382128215821482FB01BE
:100EC00001900020E9F73197AF01461B570B0C94B6
:100ED0002D071F920F920FB60F9211242F933F935D
:100EE0004F935F936F937F938F939F93AF93BF9332
:100EF000EF93FF938091B900887F803609F44AC050
:100F0000F0F5883209F4A7C018F5803109F49BC0C8
:100F1000B8F4882309F4F9C0883009F494C0FF912B
:100F2000EF91BF91AF919F918F917F916F915F9161
:100F30004F913F912F910F900FBE0F901F901895DA
:100F4000883109F488C0803251F78093B30214C00D
:100F5000803409F49DC040F48033B9F38833F9F646
:100F60008093B30285ECB0C0803509F485C0883524
:100F700009F496C0883499F60E942806D0CF8839A3
:100F800009F48CC038F5883729F050F4883611F010
:100F9000803729F683E08093B4021092B20257C0E2
:100FA000883809F47BC0803919F0803809F0B7CF50
:100FB0008091B202803208F071C0E091B20281E00B
:100FC0008E0F8093B2028091BB00F0E0EE56FD4F91
:100FD00080833DC0803B39F0E0F4803A09F479C069
:100FE000883A09F09CCF84E08093B40210928F027B
:100FF00010928E02E0918C02F0918D020995809101
:101000008E0281110FC081E080938E0210926C02DB
:1010100009C0803C09F4A6CF883C09F4A3CF883BE3
:1010200009F07DCFE0918F0281E08E0F80938F02D7
:10103000F0E0E459FD4F80818093BB0090918F02D6
:1010400080918E0229C08091D9028093BB0085ECEB
:101050008093BC0064CF9091D8028091D7029817FA
:1010600058F5E091D80281E08E0F8093D802F0E02D
:10107000E954FD4F8081E9CFE091D80281E08E0FE5
:101080008093D8028091BB00F0E0E954FD4F80834B
:101090009091D8028091D7029817C8F285E8D8CFEE
:1010A000E091D80281E08E0F8093D8028091BB003E
:1010B000F0E0E954FD4F80838091B60281115CCF4E
:1010C00081E08093B50284EA8093BC001092B40260
:1010D00026CF85EC8093BC001092B4028091B202BE
:1010E000803230F4E091B202F0E0EE56FD4F108213
:1010F0006091B20270E0E0919002F091910282E979
:1011000092E009951092B2020ACF1092B30234CF46
:101110001F920F920FB60F9211242F933F938F932C
:101120009F93AF93BF938091190290911A02A0915F
:101130001B02B0911C023091180223E0230F2D37BF
:1011400058F50196A11DB11D209318028093190234
:1011500090931A02A0931B02B0931C0280911D026F
:1011600090911E02A0911F02B09120020196A11D34
:10117000B11D80931D0290931E02A0931F02B09395
:101180002002BF91AF919F918F913F912F910F902E
:101190000FBE0F901F90189526E8230F0296A11DF1
:1011A000B11DD2CF1F920F920FB60F9211242F9321
:1011B0003F934F935F936F937F938F939F93AF93DF
:1011C000BF93EF93FF9386EE92E00E94E302FF91BC
:1011D000EF91BF91AF919F918F917F916F915F91AF
:1011E0004F913F912F910F900FBE0F901F90189528
:1011F0001F920F920FB60F9211242F938F939F93EC
:10120000EF93FF93E091F602F091F7028081E09175
:10121000FC02F091FD0282FD1BC090818091FF02D3
:101220008F5F8F7320910003821741F0E091FF02DE
:10123000F0E0EA51FD4F958F8093FF02FF91EF910F
:101240009F918F912F910F900FBE0F901F90189527
:101250008081F4CF1F920F920FB60F9211242F931B
:101260003F934F935F936F937F938F939F93AF932E
:10127000BF93CF93DF93EF93FF938091B001C09121
:10128000DA01D0E087FF24C010928500109284001C
:101290008091B0018F5F8093B0018091B001082EE2
:1012A000000C990B8C179D0724F48091B0018C30B1
:1012B000C4F18091840090918500049680349C490B
:1012C00008F47AC08091840090918500049676C0DD
:1012D0008091B001082E000C990B8C179D07C4F665
:1012E000E091B0018E2FEE0F990BFC01EE0FFF1F66
:1012F000E80FF91FEA54FE4F808186FFC9CFE091C5
:10130000B0018E2FEE0F990BFC01EE0FFF1FE80FBF
:10131000F91FEA54FE4F808160E08F730E946401E0
:10132000B7CF2091840030918500E091B0018E2FDD
:10133000EE0F990BFC01EE0FFF1FE80FF91FEA54A7
:10134000FE4F81819281820F931F90938900809339
:101350008800E091B0018E2FEE0F990BFC01EE0F8B
:10136000FF1FE80FF91FEA54FE4F808186FF11C06E
:10137000E091B0018E2FEE0F990BFC01EE0FFF1FD5
:10138000E80FF91FEA54FE4F808161E08F730E94DD
:101390006401FF91EF91DF91CF91BF91AF919F9148
:1013A0008F917F916F915F914F913F912F910F900E
:1013B0000FBE0F901F90189580E49CE990938900D0
:1013C000809388008FEF8093B001E3CF1F920F923C
:1013D0000FB60F9211242F933F934F935F936F9308
:1013E0007F938F939F93AF93BF93CF93EF93FF938D
:1013F00099B1C091DF0180910D0230910A02292F2D
:10140000209523238923822B20916D00C927C22395
:10141000C8239093DF01CC23C1F1C0FF05C0E09148
:10142000E001F091E1010995C1FF05C0E091E20101
:10143000F091E3010995C2FF05C0E091E401F0914C
:10144000E5010995C3FF05C0E091E601F091E701D0
:101450000995C4FF05C0E091E801F091E901099503
:10146000C5FF05C0E091EA01F091EB010995C6FFC7
:1014700005C0E091EC01F091ED010995C7FF05C0B1
:10148000E091EE01F091EF010995FF91EF91CF917D
:10149000BF91AF919F918F917F916F915F914F918C
:1014A0003F912F910F900FBE0F901F9018951F9294
:1014B0000F920FB60F9211242F933F934F935F9388
:1014C0006F937F938F939F93AF93BF93CF93EF933C
:1014D000FF9396B1C091F00180910E0230910B0202
:1014E000292F209523238923822B20916C00C92743
:1014F000C223C8239093F001CC2351F1C0FF05C053
:10150000E091F101F091F2010995C1FF05C0E09170
:10151000F301F091F4010995C2FF05C0E091F501D6
:10152000F091F6010995C3FF05C0E091F701F09134
:10153000F8010995C4FF05C0E091F901F091FA01A5
:101540000995C5FF05C0E091FB01F091FC010995EB
:10155000FF91EF91CF91BF91AF919F918F917F912B
:101560006F915F914F913F912F910F900FBE0F9010
:101570001F9018951F920F920FB60F9211242F9360
:101580003F934F935F936F937F938F939F93AF930B
:10159000BF93CF93EF93FF9393B1C091FD018091DF
:1015A0000F0230910C02292F209523238923822BAF
:1015B00020916B00C927C223C8239093FD01CC233F
:1015C00051F1C0FF05C0E091FE01F091FF010995C6
:1015D000C1FF05C0E0910002F09101020995C2FF30
:1015E00005C0E0910202F09103020995C3FF05C016
:1015F000E0910402F09105020995C4FF05C0E09155
:101600000602F09107020995C5FF05C0E0910802A6
:10161000F09109020995FF91EF91CF91BF91AF91A0
:101620009F918F917F916F915F914F913F912F91FA
:101630000F900FBE0F901F9018951F920F920FB62C
:101640000F9211242F933F934F935F936F937F9348
:101650008F939F93AF93BF93EF93FF93E091DD013F
:10166000F091DE010995FF91EF91BF91AF919F91AC
:101670008F917F916F915F914F913F912F910F903B
:101680000FBE0F901F9018951F920F920FB60F92DA
:1016900011242F933F934F935F936F937F938F9377
:1016A0009F93AF93BF93EF93FF93E091DB01F09192
:1016B000DC010995FF91EF91BF91AF919F918F91BF
:1016C0007F916F915F914F913F912F910F900FBE3E
:1016D0000F901F901895EAEDF2E01382128288EEC7
:1016E00093E0A0E0B0E084839583A683B7832EE1E6
:1016F00031E031832083E6EEF2E0138212828483AC
:101700009583A683B78380E391E09183808385EC02
:1017100090E09587848784EC90E09787868780ECBB
:1017200090E0918B808B81EC90E0938B828B82ECAC
:1017300090E0958B848B86EC90E0978B868B118E56
:10174000128E138E148E0895CF93DF93CDB7DEB72C
:10175000E4970FB6F894DEBF0FBECDBF789484B582
:10176000826084BD84B5816084BD85B5826085BD9D
:1017700085B5816085BD80916E00816080936E002B
:10178000109281008091810082608093810080911D
:1017900081008160809381008091800081608093CE
:1017A00080008091B10084608093B1008091B0008E
:1017B00081608093B00080917A00846080937A0089
:1017C00080917A00826080937A0080917A008160B3
:1017D00080937A0080917A00806880937A001092DA
:1017E000C10082E090E00E94E50F8C0182E090E071
:1017F000F801918380830E9459026093B201709333
:10180000B3018093B4019093B50160E082E00E943F
:10181000D10110931102009310028CE090E00E941D
:10182000E50FFC018091DA018C3008F0B3C191E042
:10183000980F9093DA01818790E0DC01AA0FBB1F1B
:10184000A80FB91FAA54BE4F88EB9BE012969C9339
:101850008E9311978DE090E09183808384EB90E0EC
:101860009383828315821482178216821086F093E6
:101870001502E093140282E090E00E94E50F6C01F3
:101880008DE090E00E94E50F8C01FC011382128232
:1018900082E191E091838083118687E2848384E1F1
:1018A000828784E083871486F60111830083109277
:1018B00063021092620210926502109264020E940A
:1018C000920183EB90E090938D0280938C0284EBE5
:1018D00090E09093910280939002F80115828385A5
:1018E000823010F098E09583F801808762E370E021
:1018F00080E090E00E942702F8016485C8010E9400
:10190000720368EE73E080E090E00E94270260E3DB
:10191000C8010E9468068BE4E82E86E4F82EC70111
:101920000197F1F760E3C8010E946806C7010197BB
:10193000F1F760E3C8010E94680683E592E0019731
:10194000F1F760E2C8010E946806F80165816062F3
:1019500040E0C8010E94810684E0F801868340E0EF
:101960006CE0C8010E948106C8010E94E70692E06F
:10197000B92EF801B78240E066E0C8010E948106F6
:1019800040E062E0C8010E9481068BE39FE101977D
:10199000F1F7F6018081918128E0FC01248760E065
:1019A0000E947203D0921302C092120283E090E070
:1019B0000E94E50F2AE030E0FC013183208312828F
:1019C00061E08AE00E94D10183E090E00E94E50F8F
:1019D0002BE030E0FC0131832083128261E08BE058
:1019E0000E94D10162E571E08E010F5F1F4FC801B7
:1019F0000E94580750E040E0B801C6010E94C906A5
:101A0000C8010E946006E0901402F0901502F701F0
:101A100062817381C7010E94B80468EE73E080E0C0
:101A200090E00E942702F70164817581C7010E943E
:101A3000B80460EA7FE080E090E00E9427029FB750
:101A4000F8942DE534E03093DC012093DB01E89835
:101A5000809169008C7F809369008091690081602A
:101A600080936900E09AE89A9FBFE091F602F091B6
:101A7000F702B082E091F202F091F3021082E0915D
:101A8000F402F091F5028FEC80831092FE02E09157
:101A9000FA02F091FB0286E08083E091F802F09177
:101AA000F902808180618083E091F802F091F9026F
:101AB000808188608083E091F802F091F902808152
:101AC00080688083E091F802F091F90280818F7D37
:101AD0008083109217021092160224EB822E912C12
:101AE000A12CB12C30E0632E30E0732E60E471E065
:101AF000CE018F960E94580786EE92E00E94C302A4
:101B0000181619060CF049C00E9459026093EE02A3
:101B10007093EF028093F0029093F10286EE92E0D0
:101B20000E94A10297FF5BC10E945902C090EE0281
:101B3000D090EF02E090F002F090F1026C197D0974
:101B40008E099F09C090EA02D090EB02E090EC026F
:101B5000F090ED026C157D058E059F05F8F2598217
:101B60001A82EBA8FCA8FFEFEF1AFF0AB701CE011B
:101B70008F960E940507882309F4BECF2FA538A9A8
:101B80008BA99CA9B801820F931F0E94D011FCAAB7
:101B9000EBAAB2CF8FEF81875DCE4BA95CA941152F
:101BA000510541F06FA578A986EE92E00E9465028A
:101BB0000E942006809116029091170282309105B2
:101BC000D1F078F40097B9F00197E1F040E250E0ED
:101BD00066E671E086EE92E00E9465020E942006B1
:101BE0001AC08430910509F4E5C010F0059771F72B
:101BF0006AE570E002C06DE270E08091140290919D
:101C0000150207C08091140290911502FC016481B5
:101C100075810E94B804E0901202F0901302F7015F
:101C2000808191810E94E70667E871E0C8010E9407
:101C3000580750E040E0B801C7010E94C906C8013A
:101C40000E946006C0901202D0901302E09114022C
:101C5000F0911502A681B78124E630E00E94D80FEA
:101C6000A50194010E94320FCA01B9011AA619A652
:101C70001CA61BA61EA61DA62AE0A8010E94F10E06
:101C8000F80101900020E9F73197AF01401B510B9B
:101C9000B801CE0189960E942D071CA21BA21EA28C
:101CA0001DA218A61FA269A57AA56115710531F0BC
:101CB0004DA55EA5CE0183960E942D07EFA0F8A446
:101CC000FFEFEF1AFF0AB701CE0183960E940507C6
:101CD0002BA13CA1882309F475C08FA198A56CE9BC
:101CE00071E0820F931F0E94D011F8A6EFA21A8212
:101CF00019821C821B821E821D826BA17CA1611530
:101D0000710529F04FA158A5C8010E942D0741E097
:101D100050E0B801C6010E94C906C8010E946006D1
:101D2000CE0183960E946006CE0189960E946006CD
:101D3000E0901202F09013026EE971E0C8010E9477
:101D4000580742E050E0B801C7010E94C906C80127
:101D50000E946006E0901202F09013028091160239
:101D60009091170261E471E0059711F068E471E069
:101D7000C8010E94580743E050E0B801C7010E9423
:101D8000C906C8010E946006CE018F960E946006B7
:101D900064EF71E080E090E00E942702611471041A
:101DA00009F4A4CE0E94CF02882309F49FCE0E949A
:101DB00000009CCE8091140290911502FC0162817A
:101DC000738127CF2115310519F0C9010E948110B7
:101DD0001CA21BA218A61FA21EA21DA288CF582EAD
:101DE000BECEBB272A3051F4992342F4BDE2909530
:101DF0008095709561957F4F8F4F9F4F0C94010F89
:101E0000BB27FA01A62F6217710581059105330BD7
:101E100030FB66F0AA27660F771F881F991FAA1F3D
:101E2000A21710F0A21B63953850A9F7A05DAA3342
:101E300008F0A95DA19336F7B111B1931082CA01E0
:101E40000C94220FDC01FC01672F71917723E1F7DD
:101E5000329704C07C916D9370836291AE17BF0777
:101E6000C8F30895052E97FB1EF400940E94490FB5
:101E700057FD07D00E949B0F07FC03D04EF40C9433
:101E8000490F50954095309521953F4F4F4F5F4FEB
:101E9000089590958095709561957F4F8F4F9F4FD6
:101EA00008950E94BD0FA59F900DB49F900DA49F13
:101EB000800D911D11240895B7FF0C94510F0E94BD
:101EC000510F821B930B08952F923F924F925F9276
:101ED0006F927F928F929F92AF92BF92CF92DF923A
:101EE000EF92FF920F931F93CF93DF93CDB7DEB79F
:101EF000CA1BDB0B0FB6F894DEBF0FBECDBF099433
:101F00002A88398848885F846E847D848C849B8489
:101F1000AA84B984C884DF80EE80FD800C811B8197
:101F2000AA81B981CE0FD11D0FB6F894DEBF0FBEC6
:101F3000CDBFED010895A1E21A2EAA1BBB1BFD0126
:101F40000DC0AA1FBB1FEE1FFF1FA217B307E40798
:101F5000F50720F0A21BB30BE40BF50B661F771FF0
:101F6000881F991F1A9469F76095709580959095D0
:101F70009B01AC01BD01CF010895A29FB001B39FA9
:101F8000C001A39F700D811D1124911DB29F700D82
:101F9000811D1124911D0895991B79E004C0991F9A
:101FA000961708F0961B881F7A95C9F780950895B3
:101FB0000E94BD0FB7FF0895821B930B0895EE0F8B
:101FC000FF1F0590F491E02D09940F931F93CF9379
:101FD000DF938230910510F482E090E0E091850378
:101FE000F091860330E020E0B0E0A0E0309799F473
:101FF0002115310509F44AC0281B390B243031055D
:10200000D8F58A819B816115710589F1FB01938364
:102010008283FE0111C040815181028113814817E2
:102020005907E0F04817590799F4109761F0129694
:102030000C93129713961C933296CF01DF91CF9198
:102040001F910F9108950093850310938603F4CF99
:102050002115310551F04217530738F0A901DB0172
:102060009A01BD01DF01F801C1CFEF01F9CF9093D3
:10207000860380938503CDCFFE01E20FF31F81938A
:1020800091932250310939832883D7CF209183033C
:1020900030918403232B41F42091020130910301FC
:1020A0003093840320938303209100013091010138
:1020B0002115310541F42DB73EB7409104015091EF
:1020C0000501241B350BE0918303F0918403E21793
:1020D000F307A0F42E1B3F0B2817390778F0AC014B
:1020E0004E5F5F4F2417350748F04E0F5F1F509328
:1020F000840340938303819391939FCFF0E0E0E0CA
:102100009CCFCF93DF930097E9F0FC0132971382C5
:102110001282A0918503B0918603ED0130E020E0AA
:102120001097A1F420813181820F931F20918303A6
:10213000309184032817390709F061C0F0938403B4
:10214000E0938303DF91CF910895EA01CE17DF0773
:10215000E8F54A815B819E0141155105B1F7E9011E
:10216000FB83EA8349915991C40FD51FEC17FD07F2
:1021700061F4808191810296840F951FE901998312
:102180008883828193819B838A83F0E0E0E01296CA
:102190008D919C9113970097B9F52D913C911197D2
:1021A000CD010296820F931F209183033091840307
:1021B0002817390739F6309751F510928603109297
:1021C0008503B0938403A0938303BCCFD383C283DE
:1021D00040815181840F951FC817D90761F44E5F64
:1021E0005F4F88819981480F591F518340838A81AD
:1021F0009B81938382832115310509F0B0CFF09341
:102200008603E09385039ECFFD01DC01C0CF1382DE
:102210001282D7CFB0E0A0E0E0E1F1E10C94660FCC
:102220008C01009751F4CB010E94E50F8C01C8018D
:10223000CDB7DEB7E0E10C94820FFC01E60FF71F8B
:102240009C0122503109E217F30708F49DC0D9011F
:10225000CD91DC911197C617D70798F0C530D105FD
:1022600030F3CE0104978617970708F3C61BD70BE8
:102270002297C193D1936D937C93CF010E948110DB
:10228000D6CF5B01AC1ABD0A4C018C0E9D1EA091ED
:102290008503B0918603512C412CF12CE12C109731
:1022A00031F580918303909184038815990509F095
:1022B0005CC04616570608F058C080910001909106
:1022C0000101009741F48DB79EB7409104015091F0
:1022D0000501841B950BE817F90708F055C0F0932A
:1022E0008403E0938303F90171836083A0CF8D9110
:1022F0009C91119712966C90129713967C9013975D
:10230000A815B90559F56C0142E0C40ED11CCA14D8
:10231000DB0420F1AC014A195B09DA01129615972A
:1023200080F06282738251834083D9016D937C93E4
:10233000E114F10471F0D7011396FC93EE93129718
:1023400076CF22968C0F9D1FF90191838083F30134
:10235000EFCFF0938603E093850369CF48165906C3
:1023600008F42C017D01D3019ACFCB010E94E50F27
:102370007C01009749F0AE01B8010E94C711C80165
:102380000E948110870153CF10E000E050CFFB0185
:10239000DC0102C001900D9241505040D8F70895E1
:1023A000FB01DC0101900D920020E1F70895F89403
:0223B000FFCF5D
:1023B2000000870380000000400014005400000069
:1023C2000000FF0665025A045904000000000C01D7
:1023D200DF005A04B500D800C500B60000000000B6
:1023E2000503650292025203C302A102B5020D0A5D
:1023F200006D616E75616C006175746F6D617469F9
:10240200630043616C6962726174696E672073650F
:102412006E736F7273004572726F723A20636F6EE1
:1024220074726F6C6C65725374617465206E6F7434
:102432002076616C69640056616C7665206F706508
:102442006E696E67206C6576656C3A00250063756F
:102452007272656E74206D6F64616C6974793A0092
:00000001FF
